:020000040000FA
:1000000000190020BD010000C9430000753B00003D
:1000100000000000000000000000000000000000E0
:10002000000000000000000000000000E7460000A3
:100030000000000000000000D14600003147000031
:10004000A13B0000973B0000993B0000D10100005C
:100050009B3B0000874A0000051100004517000087
:10006000CD0C0000ED0900008F4A0000953B000018
:10007000E5460000754A0000794A00009D3B0000FB
:10008000CF010000854A0000894A00008B4A000029
:100090008D4A0000CF010000CF010000CF01000019
:1000A000CF010000CF010000CF010000CF01000010
:1000B000CF010000CF010000CF0100007519000042
:1000C0007E36E8FF03B40148019001BD69050020B8
:1000D00003B40148019001BD0105002003B40148AB
:1000E000019001BD2306002003B40148019001BD29
:1000F0007901002003B40148019001BD2B010020CB
:1001000003B40148019001BDDD02002003B40148A1
:10011000019001BD0100002000F002F800F03EF85F
:100120000CA030C8083824182D18A246671EAB460C
:1001300054465D46AC4201D100F030F87E460F3E99
:100140000FCCB6460126334200D0FB1AA246AB467E
:10015000334318473C5500006C550000103A02D359
:1001600078C878C1FAD8520701D330C830C101D558
:1001700004680C607047000000230024002500265E
:10018000103A01D378C1FBD8520700D330C100D553
:100190000B6070471FB51FBD10B510BD00F0E0FA31
:1001A0001146FFF7F7FF04F0BBFD00F0F8FA03B4C7
:1001B000FFF7F2FF03BC00F0FFFA00000848804799
:1001C00008480047FEE7FEE7FEE7FEE7FEE7FEE73A
:1001D000FEE7000004480549054A064B7047000049
:1001E000054800001901000000120020001900203D
:1001F000001300200013002001E004C0091F04299F
:10020000FBD28B0701D50280801CC90700D0027089
:10021000704700290BD0C30702D00270401C491E52
:10022000022904D3830702D50280801C891EE3E7DC
:100230000022EEE70022DFE7002203098B4273D39E
:10024000030A8B4258D3030B8B423CD3030C8B42E3
:1002500021D312E003460B437FD4002243088B4294
:1002600074D303098B425FD3030A8B4244D3030B3D
:100270008B4228D3030C8B420DD3FF22090212BA02
:10028000030C8B4202D31212090265D0030B8B427E
:1002900019D300E0090AC30B8B4201D3CB03C01A68
:1002A0005241830B8B4201D38B03C01A5241430B43
:1002B0008B4201D34B03C01A5241030B8B4201D333
:1002C0000B03C01A5241C30A8B4201D3CB02C01A9E
:1002D0005241830A8B4201D38B02C01A5241430A16
:1002E0008B4201D34B02C01A5241030A8B4201D305
:1002F0000B02C01A5241CDD2C3098B4201D3CB01AC
:10030000C01A524183098B4201D38B01C01A52415A
:1003100043098B4201D34B01C01A524103098B425E
:1003200001D30B01C01A5241C3088B4201D3CB0049
:10033000C01A524183088B4201D38B00C01A52412C
:1003400043088B4201D34B00C01A5241411A00D2DC
:1003500001465241104670475DE0CA0F00D0494245
:10036000031000D34042534000229C4603098B42B5
:100370002DD3030A8B4212D3FC22890112BA030A3D
:100380008B420CD3890192118B4208D389019211BF
:100390008B4204D389013AD0921100E08909C30944
:1003A0008B4201D3CB01C01A524183098B4201D346
:1003B0008B01C01A524143098B4201D34B01C01A31
:1003C000524103098B4201D30B01C01A5241C308A9
:1003D0008B4201D3CB00C01A524183088B4201D318
:1003E0008B00C01A5241D9D243088B4201D34B0033
:1003F000C01A5241411A00D20146634652415B1075
:10040000104601D34042002B00D549427047634655
:100410005B1000D3404201B50020C046C04602BD7B
:1004200070477047704700000246C80FC0078143FD
:100430004B0030B54B405B009B0D20D01923DB06F1
:10044000C91801231B05994220DB0324A4070425B6
:100450001346AB400BD3002B04D1EB0613409B009B
:10046000E34204D401246407002312195941FF23F5
:100470001B0599420BD2C9000143500F09E0CB0282
:1004800004D501430803024305D0054830BDFF21D0
:10049000C905084330BD084607210905884330BD1A
:1004A0000000C07F30B50346CA02400D1043164D10
:1004B000164C0A1502D02043002A06DBAA1A002A8D
:1004C00012DDD040FF2A0BDC30BD5205520D01D1A8
:1004D00040004008AA1A07D4D0404042FF2A01DD5C
:1004E000002030BD0028FCDD4A00002B01D0012097
:1004F00000E00020101801225205D042F0D8C817A1
:10050000C043604030BD00001E04000000000080B9
:10051000F0B5FF252D04C609C209FF2704462E4069
:100520000137CB093E4348402A402B400746002A6A
:100530006BD0002B69D0AA4267D0AB4265D00028AF
:1005400000DA32460125ED0529432C430902200239
:10055000090AD21A4B0C7F24E31A434C000A7C444C
:10056000E35C7D242404121914145B00A218884251
:1005700001D3521C00E0400049420C465C43241168
:100580005C43DB016415E318040A5C43C502200DDB
:100590000C4644436419250A5D432303EC0C0D46C5
:1005A000654300030019EB184C42A34201D35B18CA
:1005B000401CD4052018002B07D05B00C91804D3B9
:1005C000401C002901D1400840003F2189048A4293
:1005D00009D3002A08DC1106090F04D003214907BA
:1005E0004018C00FC007F0BD012241001206891853
:1005F0007F2252069142F6D205214907C84201D511
:100600009010F0BDFF20C005F0BD002F00DA32468B
:100610001648AA4207D2AB4205D21902090E17D0DA
:10062000F80FC007F0BDFF2563002D06AB42F9D8D7
:100630004900A942F6D8AB4201D1A942F2D0A94261
:1006400001D1002101E061004908D0050843F0BD57
:100650001102090EFBD0FF200243D005F0BD0A466F
:100660000146104654E70000EE5000000000C07F35
:1006700010B501469E240002CA15A307002A02D025
:100680001843002A04DBA21A002A0CDDD04010BD5A
:100690001206120E01D140004008A21A03D4D04025
:1006A00040420028F3DDFF2248001206904201D9A3
:1006B000002010BDC817C043584010BD1F22030CB6
:1006C00002D10F2200041CD0030E01D10002083A0F
:1006D000030F01D10001121F830F01D18000921E70
:1006E000002801DB4000521ED20551180212511899
:1006F0001922904004D3491C002801D1490849001F
:1007000008467047C10FC90700D040420122920736
:100710001143D3E701218907D0E7000010B5FF227C
:10072000C30D134009D05A4007D0914205DA5C420C
:10073000A14202DDC905081810BDC40FE407002B53
:1007400006D0002A06D0002902DBFF20C0050443A2
:10075000204610BD4102FCD0004810BD0000C07F03
:10076000754600F025F8AE46050069465346C008B8
:10077000C000854618B020B5FFF72CFD60BC0027EF
:100780004908B6460026C0C5C0C5C0C5C0C5C0C55D
:10079000C0C5C0C5C0C5403D49008D46704710B5B5
:1007A0000446C046C0462046FFF701FD10BD0000CC
:1007B00000487047A011002001491820ABBEFEE799
:1007C00026000200704710B50121022000F0E6FD6E
:1007D0000421012000F080F80121084600F05CF8B7
:1007E00000F03AFE01210722084600F0D7F8002168
:1007F000012000F019F901210222084600F09EF8BC
:100800000021012000F02AF8012000F081F80120E9
:1008100000F004F8012000F023F910BD0949552229
:100820004A6201229203002802D0012804D006E087
:1008300008681043086002E0886810438860002060
:10084000486270470082064003490A6A01238340D8
:100850001A430A6270470000008206400D4A552381
:100860005362002802D0012808D00FE010698008E8
:100870008000106110690843106107E010690C23C3
:10088000984310611069890008431061002050628C
:1008900070470000008206400E4A5523536200282C
:1008A00002D0012808D012E0106880088000106093
:1008B0001068084310600AE090688008800090602B
:1008C000002901D0012902D19068084390600020DE
:1008D00050627047008206400C4A552353627023D1
:1008E0000901002802D0012807D00CE010689843C5
:1008F000106010680843106005E0906898439060AD
:100900009068084390600020506270470082064063
:10091000094955224A62002802D0012805D008E082
:10092000086910221043086103E00869202210437F
:1009300008610020486270470082064010B40F4BE7
:1009400055245C620F2409039202A402114300287B
:1009500002D0012807D00CE05868A04358605868BE
:100960000143596005E0D868A043D860D8680143C6
:10097000D9600020586210BC704700000082064019
:10098000054955224A624A69012383401A434A6154
:1009900000204862704700000082064010B4124BED
:1009A00055245C629C151219002802D001280CD035
:1009B00010E05868012902D0A04358600AE00009FD
:1009C0000001586058681043F7E7D868012905D03E
:1009D000A043D8600020586210BC70474009400115
:1009E000D860D8681043F4E70082064010B50120B3
:1009F000FFF72AFF04F01EF807490A780120024396
:100A00000A7006490860064900200860054903206D
:100A1000086001F08DFA10BD500900207C0900200B
:100A200078090020740900200C4A5523536253159D
:100A30004902002802D0012807D00CE050689843F2
:100A4000506050680843506005E0D0689843D0601B
:100A5000D0680843D0600020506270470082064092
:100A6000094955224A620122D203002802D00128F6
:100A700004D006E008681043086002E0886810436C
:100A80008860002048627047008206400448552173
:100A9000C16001688215914301600021C160704707
:100AA00040830640054A5521D16011680021552830
:100AB00000D1552111600020D0607047408306406E
:100AC00004485521C162816A0021C9438162002125
:100AD000C16270470080064006495522CA620A6812
:100AE00001235B039A430A600A6802430A600020FC
:100AF000C86270470080064070B4094C5525E56215
:100B00002568084E3540256011431A0411430143FE
:100B10002068014321600020E06270BC7047000043
:100B200000800640F4FF00FC06495522CA620A68AC
:100B3000C0239A430A600A6802430A600020C86220
:100B4000704700000080064005485521C1620168D9
:100B50000F221202914301600021C1627047000020
:100B60000080064004495522CA624A6B82434A63A8
:100B70000020C862704700000080064004495522EA
:100B8000CA628A6B82438A630020C8627047000091
:100B90000080064004495522CA620A6B82430A63F8
:100BA0000020C862704700000080064004495522BA
:100BB000CA624A6B02434A630020C8627047000061
:100BC0000080064004495522CA628A6B02438A6348
:100BD0000020C8627047000000800640044955228A
:100BE000CA620A6B02430A630020C86270470000B1
:100BF0000080064010B4344A5521D162B3285ED03B
:100C000024DC93285BD010DC832858D006DC8028B5
:100C100055D0812853D082284DD150E090284ED015
:100C200091284CD0922846D149E0A32847D006DC31
:100C3000A02844D0A12842D0A2283CD13FE0B0282F
:100C40003DD0B1283BD0B22835D138E0D32836D0BA
:100C500010DCC32833D006DCC02830D0C1282ED009
:100C6000C22828D12BE0D02829D0D12827D0D228BB
:100C700021D124E005214903441A884213D00ADC1B
:100C8000C11FF93914D0FF39491E11D047235B0227
:100C9000994210D107E001231B03E11A03D0C91ABE
:100CA00001D0994207D1916807231B0399439160B2
:100CB0009168014391600020D06210BC7047916838
:100CC000732399439160F3E70080064010B50A480A
:100CD000416AC9070CD05521C162816A01221143C2
:100CE00081620021C16202F073FB01F06BFA10BD5A
:100CF000FFF7E6FE10BD00000080064010B50121A0
:100D0000084600F04BFB00221E2308211046FFF787
:100D1000F3FE0020FFF7E0FEFFF716FF0020FFF7CD
:100D200003FF03220621012002F0A2FE032202217A
:100D3000002002F09DFE03220721022002F098FE0F
:100D400003220521002002F093FE0221032208461F
:100D500002F08EFE03220021022002F089FE03220F
:100D60000121022002F084FE00F064F810BD0000B2
:100D7000F0B4294B9A682948294902618E6AC660F5
:100D80005D688561496B4161436ECB1A25498C686A
:100D900063439B12C363076ED21B4F687A43921260
:100DA0008263C76D0968F61B4E43B1124163866EBC
:100DB000AD1B6543AC12A44604641B4CA06B0546F6
:100DC0005543EE13194D281A194D2F687843C01357
:100DD00030182860E06BAF684343DE13134B1B1AD7
:100DE0005F43FF13F619AE60646B104E6143341B12
:100DF0006E68C9137443E4130919696001D50021B1
:100E0000696061464843E96EC0134B43D9134018EB
:100E1000AA66E866F0BC7047C0800640780C0020E7
:100E200080800640F80C0020280C0020FF7F000086
:100E3000A80A002004485521C1620168102211430C
:100E400001600021C16270470080064010B50E4C61
:100E50002046FFF787FE2046FFF790FE0120FFF7B0
:100E6000A5FE0220FFF7AEFEFF200130FFF7C2FE15
:100E700001204002FFF7BEFE0448FFF7AFFE8320CB
:100E8000FFF7B8FE10BD0000FFFFFF0000040600E2
:100E900010B50121102000F069FA0122124B032144
:100EA000104600F043F800F0DFF80121084600F09A
:100EB00029F80221084600F025F80121032000F05E
:100EC00021F81F2000F0EAF908490120C872002229
:100ED0000421104602F0CCFD012000F0EBF80120C7
:100EE00000F014FA10BD0000FFFF0000600804408D
:100EF0000349CB680122083082401343CB6070471E
:100F0000C042064010B4084A55235361936940001B
:100F100003248440A3439361936981400B4393610D
:100F20000020506110BC7047C042064070B4104DA4
:100F300055246C619BB212040E4C302609011343F8
:100F4000002802D0012808D00EE02068B0432060BD
:100F5000206808432060636006E02069B043206198
:100F600020690843206163610020686170BC70479C
:100F7000C04206408042064010B41B4CAA23636165
:100F80001A4B002802D0012815D028E0002902D0F1
:100F9000012908D023E09868000C00049860986844
:100FA000104398601BE0D868000C0004D860D86833
:100FB0001043D86013E0002902D0012908D00EE0C8
:100FC0009869000C0004986198691043986106E0E4
:100FD000D869000C0004D861D8691043D86100209A
:100FE000606110BC70470000C0420640804206406D
:100FF00010B4144CAA2262610123134A1B04002876
:1010000002D001280DD018E0002902D0012904D017
:1010100013E09068984390600FE0D0689843D060E8
:101020000BE0002902D0012904D006E09069984322
:10103000906102E0D0699843D0610020606110BCEB
:1010400070470000C04206408042064005495522D4
:101050004A610A69012383409A430A61002048617A
:1010600070470000C0420640054855214161816932
:101070000122520311438161002141617047000048
:10108000C0420640094B55215961094A08210028F0
:1010900002D0012804D006E010680843106002E086
:1010A000106908431061002058617047C042064033
:1010B00080420640054955224A610A69012383405E
:1010C0001A430A610020486170470000C042064090
:1010D0000B4906280BD203007B441B79DB189F4485
:1010E00006070A0C0204086A03E0086A000C70474D
:1010F000486A80B27047886AFBE7C86AF9E700006F
:10110000C0420640F0B43049486984468868800788
:1011100055D52E4CFD202678002306402670A3616D
:10112000F0073DD160882A4A2A4D002806D00128C0
:1011300009D0022817D003281AD028E0926992B269
:10114000AA1AA26023E09769BFB2ED1BE56055259E
:101150004D611569AD08AD001561156903273D4363
:1011600015614B6113E0926992B2AA1A22610EE0F6
:101170009769BFB2ED1B656155254D611569AD08D5
:10118000AD001561156902273D4315614B61401C97
:1011900080B26080032803D9012063800643267053
:1011A000C86802221043C860552048610C69944306
:1011B0000C614B6148610869104308614B616046EE
:1011C0004861F0BC70470000C0420640400A002061
:1011D00080420640E8FD000078B41C4D5526049C72
:1011E0006E619BB212041343194A002802D00128F1
:1011F00014D026E05360002902D0012907D020E056
:101200009068000C000420430090906019E0D068C2
:10121000000C000420430090D06012E053610029CC
:1012200002D0012907D00CE09069000C0004204393
:101230000090906105E0D069000C0004204300900C
:10124000D0610020686178BC70470000C042064051
:101250008042064010B5104C00280FD001280CD158
:10126000012913D00621022003F0D8F900202073B1
:1012700004220621022002F0FBFB10BD0320207394
:1012800004220621022002F0F3FB10BD06210220F9
:1012900003F0DEF9EAE700002008044010B41A4A1F
:1012A00055215161012401072404F023090E10285F
:1012B0001DD008DC00280FD001280DD002280BD04B
:1012C00003281DD108E0112811D012280FD01328AF
:1012D0000DD01F2814D10DE0D169A143D161D1698E
:1012E0009943D161D16900010143D16108E0D0691E
:1012F0002043D061D0699843D061D0690843D06160
:101300000020506110BC7047C0420640094B552177
:101310005961094A4021002802D0012804D006E082
:1013200010680843106002E0106908431061002053
:1013300058617047C042064080420640094B552123
:101340005961094A4021002802D0012804D006E052
:1013500010688843106002E0106988431061002023
:1013600058617047C042064080420640044A002946
:10137000517C01D0014300E081435174704700006B
:1013800000080240044A0029917C01D0014300E09A
:10139000814391747047000000080240044A00290C
:1013A000D17C01D0014300E08143D174704700003B
:1013B00000080240C02080781549C0080978C000A4
:1013C00001431448E0390E290CD20A007A441279FC
:1013D00092189744080C101418070707060A0E12F3
:1013E000161A0D4870470D4870470D4870470D4854
:1013F00070470D4870470D4870470D4870470D48BD
:1014000070470D4870470D4870470D487047000001
:10141000201C024040420F000090D003006CDC0210
:101420000048E80100366E010024F400001BB700FC
:1014300000127A00808D5B0000093D00C0C62D00BF
:1014400080841E00034955224A62086200204862D7
:10145000704700004083064010B50C4801680068E2
:10146000C905C90FC0B200290CD055280CD0D7240B
:1014700001212020FFF792FF2046FFF7E3FF00F055
:1014800007F810BD9B24F3E7B824F1E7408306403A
:10149000044855214162016A82151143016200210D
:1014A0004162704740830640024801681022914320
:1014B00001607047804306400248016802221143E0
:1014C00001607047804306400023002807D9044A82
:1014D0000021491C9142FCD35B1C8342F8D3704726
:1014E00010270000044855218163C168420611435A
:1014F000C160002181637047404206400548552184
:101500008163C1680122D2061143C1600021816359
:1015100070470000404206400248016B42061143FA
:10152000016370474042064010B40A4B55249C6347
:1015300089B212041143084C82001219D162216948
:10154000012208308240114321610020986310BCC1
:1015500070470000404206400042064030B40A4B4B
:1015600055229A630A4A094C1460546880000F257A
:101570008540AC435460546881400C435460002063
:10158000986330BC704700004042064001010100F2
:101590000042064010B4094B55229A63084C820061
:1015A00089B2121951612169012208308240114328
:1015B00021610020986310BC704700004042064043
:1015C0000042064030B4084C5525A563C9041204F6
:1015D00011439AB21143054A80008018C16500206A
:1015E000A06330BC70470000404206400042064005
:1015F000064A552393630029D16801D0014300E0D6
:101600008143D16000209063704700004042064053
:1016100010B4084B5521996307498A680F24A40523
:10162000A2438A608A6802438A600020986310BCE3
:1016300070470000404206400042064005495522DE
:101640008A63054A9368000283439360002088639D
:1016500070470000404206400042064004495522BF
:101660008A63044A93680343936000208863704749
:10167000404206400042064030B41C4A5523936362
:10168000890584071A4B890D002C0BD09C68012515
:101690002D042C439C601469A40AA40214611469EB
:1016A0000C4314610407A40F0CD09C6801256D0441
:1016B0002C439C6014690F4D2C40146114698D02F9
:1016C0002C4314618006800F0CD098680124A40478
:1016D000204398601069084B184010611069090593
:1016E000084310610020906330BC704740420640C0
:1016F00000420640FF03F0FFFFFF0FC004495522E0
:101700008A63CA680243CA60002088637047000089
:1017100040420640044955228A638A6802438A602F
:10172000002088637047000040420640044955226B
:101730008A634A6A02434A62002088637047000055
:101740004042064070B52748016B012421430163E4
:101750002548026825494A6040688860FEF7B2FC67
:1017600023495520C862234A00231078002806D058
:10177000012810D002281AD0032824D02DE0086BAD
:101780008925AD02A8430863086B0125AD042843F1
:101790000863147021E0086B31246403A0430863DC
:1017A000086B0124A40220430863022009E0086BAF
:1017B000114C20400863086B012464032043086334
:1017C0000320107009E0086B0C4C20400863086B84
:1017D00001246404204308631370CB6200F0F2FC20
:1017E00070BD00004042064080800640780C00201A
:1017F0000080064040090020FFFBF9FFFFDBFBFFF4
:10180000F8B501210820FFF7B1FD0B204005FFF7D7
:10181000FFFE05210020FFF7A1FE05210220FFF7B2
:101820009DFE05210420FFF799FE05242402214690
:101830000020FFF7AFFE21460220FFF7ABFE214656
:101840000420FFF7A7FE6410224611460020FFF790
:101850006BFE224611460220FFF766FE2246114625
:101860000420FFF761FE3F20FFF7E8FE60213F20E4
:10187000FFF702FF1520FFF7F1FE0022631011466B
:101880001046FFF79FFE2346022200210120FFF7AA
:1018900099FE0120C004FFF731FF00211520FFF75A
:1018A000A7FE00212A20FFF7A3FEFFF71BFE244C12
:1018B0005526A663244D2348E862E86368632869D7
:1018C00015210902084328613F20000260610027BA
:1018D000A7631E4901200874887408758875087606
:1018E00088760422394602F0C3F801210422084612
:1018F00002F0BEF804220221012002F0B9F804220D
:101900000321012002F0B4F804221146012002F064
:10191000AFF804220521012002F0AAF83F20FFF7CA
:10192000F9FEA6630A486060A763A66328690949AF
:1019300008432861A7633F2000F00EF8F8BD0000BF
:1019400040420640800280020042064000080440F7
:10195000201453AA00005505044955228A63044AFD
:10196000D3680343D3600020886370474042064039
:10197000004206407047000012480021C16001612A
:1019800041618161C16101620F4A4162536B9B10E9
:101990008360926B02600D4A936C8362D36C016327
:1019A000C36241630A4B8363526D01644164816485
:1019B0004165C2630165002A01DDC26470470121EF
:1019C000C1647047C0100020DC0D0020A80B00206F
:1019D0003075000010B4294B29491A680C6862431D
:1019E000D213C2605B6809684B43D9130161254972
:1019F0000968416124494B688361046C81686143D3
:101A0000C91381645943491389184B424362C16128
:101A1000C16A026B49105943891389180163826BAB
:101A2000914200DD0263046BC16B8C4200DA0163FA
:101A3000846AE4105C432313046B1B1943639342D1
:101A400001DC1A4600E042638A4201DB114600E0F5
:101A50004163016402685143C9134164426D5118E6
:101A60000A4A4165914202DD5342C9184165002985
:101A700001DA8918416510BC70470000D8090020C0
:101A8000A80A0020C0090020C8090020FFFF0000AC
:101A9000F8B5074600220C461046002F02DB3946F7
:101AA000022200E07942002C02DB2346521C00E0B7
:101AB0006342994200DD121D3D4D6E42002F04D15C
:101AC0006422002C01DA3B4807E0002C05D1642297
:101AD000002F01DB284600E03046374C082A5DD253
:101AE00017007F443F79FF19BF4403101B27313B88
:101AF000454FC803401A194602F032F80004000EA0
:101B00004000205E0121C903401A47E0C803401A83
:101B1000194602F025F80004000E4000205E404205
:101B20003CE0C803401A194602F01AF80004000EFF
:101B30004000205E2149081A30E0C803401A1946C7
:101B400002F00EF80004000E4000205E26E0D803EC
:101B5000C01A02F005F80004000E4000205E301AA2
:101B60001CE0D803C01A01F0FBFF0004000E400087
:101B7000205E801912E0D803C01A01F0F1FF0004C2
:101B8000000E4000205E401908E0D803C01A01F0A2
:101B9000E7FF0004000E4000205E281A0849884232
:101BA00001DB4A428018002800DA4018F8BD000026
:101BB000FF3F00000180FFFF50550000FF7F000045
:101BC000FFFF0000F0B57D4F7D483968C06983B0E4
:101BD00041438A12BA6179687A4C41438912F961AA
:101BE000BB68784D4343981253005B1A1B1A63433A
:101BF000DC134B009B1A1B1A6B43DB13FC603B612D
:101C000038624000801A401A6843C1136000C01A4D
:101C1000401A79616C4A591A68435143C0133863BA
:101C200089136A4A79635278002A00D049424042B7
:101C3000FFF72EFF6649B862884203DB494240182D
:101C4000B86204E0002802DA61494018B8626846C8
:101C5000F96AFEF73DFA5F48019A00998263416391
:101C60005D4A386B116853684143CC13796B012688
:101C70004B43DB13E318BB631368594C4B43516868
:101C8000DB134143C813181AF863544AB86A9042E8
:101C900001D2267621E053494318C9438B4202D230
:101CA0000221217619E0504BC318934201D203213F
:101CB00005E00123DB03C31A8B4202D20421217603
:101CC0000BE04A4BC318934201D20521F7E7484A7B
:101CD00082188A4201D20621F1E73E49227E8978A4
:101CE00000258A420CD0511A012910D04B1D0ED06C
:101CF0006576E5764B1C0ED005290CD0A5762577A8
:101D000034498A70E27E0A21002A08D00EE0637E00
:101D10005B1C6376EEE7A17E491CA176F0E7627E4C
:101D20000A2A02D36176E67600E0E576227F002A71
:101D300006D1A27E0A2A02D3A176267700E0257773
:101D40003A6D521C3A65796D8A4203D93965396416
:101D5000A5737D62E37E7D2226491202002B14D0FA
:101D6000F862884202DAA17B002904D0904200DDAB
:101D7000A57303B0F0BD396D1548396401F0F0FE6C
:101D80003D657862A67303B0F0BD237F002BFAD0C7
:101D9000F862884202DAA17B002903D09042E7DC96
:101DA00003B0F0BD386D41420948396401F0D8FEF6
:101DB0003D657862A67303B0F0BD0000240F0020DB
:101DC000F80C0020AA2A0000F32400006E0900206D
:101DD000FFFF0000E4090020180A0020AB2A0000E1
:101DE000640F002055D5FFFFABAAFFFF5655FFFF3C
:101DF000AB2AFFFFB80B00000B4A0020D060106137
:101E00005061106350639063D0631064506407495D
:101E10009064087348731065D06250624876887683
:101E2000C876087770470000240F0020640F002058
:101E3000F0B53D4C85B06668256831462846FEF70A
:101E400067FBA0600090A7693146384602F0C0FFEA
:101E500001462846FEF75CFBE06004907F2039468F
:101E6000C005FEF755FB60610290A06A01900099E1
:101E700002F0AEFF656A2946FEF74AFB2B4902F0E5
:101E8000A7FFFEF7F5FB039020643946019802F0A6
:101E90009FFF264902F09CFFFEF7EAFB606427697A
:101EA0000198394602F094FF0121FEF737FC1F49E3
:101EB00002F08EFFFEF7DCFBA064266A0099304634
:101EC000FEF726FB194902F083FFFEF7D1FB2063E2
:101ED00028460499FEF71CFB144902F079FFFEF72F
:101EE000C7FB606302990198FEF712FB0F4902F0ED
:101EF0006FFFFEF7BDFBA0633846FEF7B9FBE0635A
:101F0000039820653146019802F062FF2946FEF7EA
:101F1000FFFA064902F05CFFFEF7AAFB0121C903A4
:101F2000081AE06405B0F0BDDC0D002000FEFF469D
:101F300010B52D480024046044602C48314A0460E8
:101F400044602B48324B046044602A48046044607B
:101F5000846029480460446028484460046028483C
:101F60000460D16941602848E3210481448184816F
:101F7000264800780840254908701879487088700C
:101F8000244825494461846144670467C48401622C
:101F90002249CC6022498C604C609C70C18D2148E4
:101FA0008184214844800470516EC16001F06CFC52
:101FB00001F0BCF901F008FCFFF71EFF01F058FC2E
:101FC00001F0AAF9194A552090631A481849C162CC
:101FD000C1634163016915231B02194301613F205D
:101FE00000025061946310BDB8090020C0090020B0
:101FF000D8090020A80E0020D0090020B009002038
:10200000C8090020A80B0020580B00206E090020F2
:1020100080090020180D0020A0860100A40D0020DA
:10202000980D0020E80A0020880900204042064060
:102030008002800200420640F0B54C494C4A83B011
:102040000868106049684B4B49004118594389138F
:10205000494D51602B681A464243D4136A684B437A
:1020600016464E43F613A619444C4243D913D013D7
:10207000081A266060604248FFF7ACFC414E012020
:1020800030677069404C002801DA001903E0A04273
:1020900002DD3E494018706101466846FEF718F8B7
:1020A0003B48019A0099C26281623A4AB16850681D
:1020B000884201DD401E5060884201DA401C5060B9
:1020C000364E3548F060706100F0E2FF3449286810
:1020D0000A6803465343DF136B684D68194669432A
:1020E000C91353436843791ADA13C0132D4F1218DA
:1020F0002D487A6039604078254D00282B4817D04C
:1021000001F034F82889401C80B22881284A002137
:10211000284F904221D92981274A1A48136A83609F
:102120004069174B0028586505DA0019586507E023
:10213000FDF7D4FFE6E7A04202DD144C0019586514
:10214000906A3060D06A70601C48936B0360D26BF9
:102150004260F160042271613A6019480078C0075A
:1021600001D12981396003B0F0BD0000A80E002024
:10217000B8090020F3240000B0090020C0090020A5
:10218000C0100020180D0020FFFF00000100FFFF1D
:1021900088090020C809002010270000300E002008
:1021A000D8090020D009002080090020B40E0020AA
:1021B000204E000078090020A80B0020580E0020B7
:1021C0006E09002010B53C4800680A2812D20100B0
:1021D0007944097949188F44040E282B2E3134375D
:1021E0003A51FFF7A5FE35480078C00702D03248C3
:1021F0000121016010BD324A5520906332483149B7
:10220000C162C1634163016915231B021943016166
:102210003F2000025061002090632C48018E2C4822
:10222000818425490220086010BD00F00BFE10BD1E
:10223000FFF702FF10BD00F0CFF910BD00F088FCE1
:1022400010BD00F04FF810BD00F050FB10BD1C4851
:10225000552181631F494161002282631B49086F38
:10226000002802DD401E086700E00A671A488069FE
:102270000028EBD110480A67026010BD104A5520B3
:10228000906311480F49C162C1634163016915231D
:102290001B02194301613F2000025061002090633E
:1022A0000D4989690029E8D10C490D4AC8630D21FF
:1022B00011600149086010BD780900206E090020F6
:1022C000404206408002800200420640180D002075
:1022D000E80A00202A3F00001C0B0020A80A00206A
:1022E0007C090020F0B5A44B85B01868002801DBFC
:1022F000014600E0414201915968002901DB0A468C
:1023000000E04A4202929A68002A00DA52429B4F49
:102310000392BA6A019B9A4205DB029B9A4202DB56
:10232000039B9A420ADA964A1378082423431370CF
:10233000944B04221A60944B03221A60FA6A019BA0
:102340009A4200DAFB623A6B029B9A4200DA3B63E4
:102350007A6B039B9A4200DA7B6349008C4B4118ED
:102360008A4A594389138B4C5160106023681A467E
:102370004243D51362684B4316464E43F613AE19DB
:10238000854D4243D913D013081A2E60686001F0BE
:102390005FF982480121808AC90340180004800D3A
:1023A0006946088008880321090208407C49FF2209
:1023B000002824D0FF38401E30D0FF38401E03D004
:1023C000FF38012838D10CE0684600880006C00DAF
:1023D000085E606068460088C0B2101A4000085E5F
:1023E00029E068460088C0B2101A4000085E6060AC
:1023F000684600880006C00D085E40421BE0684643
:1024000000880006C00D085E404260606846008893
:10241000C0B2101A4000085E40420CE068460088D6
:10242000C0B2101A4000085E4042606068460088F2
:102430000006C00D085E2060FDF756FE59492A6867
:102440000868801A584A536896699B1043435B1387
:10245000F31893615669B34201DC1E4600E09661B1
:1024600013699E4200DA93611368DB10434318132B
:102470009369C018D061D368984201DC034600E03C
:10248000D3619068834200DAD0614848D269026023
:10249000424B104650439B6BC013181A8011444B9B
:1024A0004000185A434BD860586149686D689E696E
:1024B000491B5D68AD104D436D1375199D618542D3
:1024C00001DD054698612E461D69AE4200DA9D6128
:1024D0001D68ED104D4329139D694919D961814249
:1024E00000DDD861D9699868814201DB084600E0C7
:1024F000D8612E4D68602668636831461C4651439A
:102500004443C913E41353434643091BDA13F0133E
:10251000294C1218626029482160FDF7DFFD284828
:10252000284A0078C00701D107201060264B69684F
:10253000264899420ADDF969836EFF392D398B42AD
:1025400004D209211160224A642191614168214825
:1025500000220368994202DD4168002902D08260AE
:1025600005B0F0BD8168491C81603229F8DD012188
:102570008260416005B0F0BDA80E0020580B00201D
:10258000500900207C09002074090020B8090020AF
:10259000F3240000B0090020C0090020180D00201D
:1025A00050530000C8090020300E0020D809002038
:1025B000504F0000580E0020D0090020B40E00201B
:1025C0006E090020780900200C7B0000A80A00207A
:1025D0001C0B0020980D0020F0B5AB4885B00024FE
:1025E000047401218174A948A94B44731868002818
:1025F00001DB014600E0414201915968002901DBFD
:102600000A4600E04A4202929A68002A00DA5242E0
:102610000392A04A019DD36AAB4200DAD562136BE4
:10262000029DAB4200DA1563536B039DAB4200DAA7
:1026300055634900994B4118974A59438913984D5E
:10264000516010602B681A464243D6136A684B43A8
:1026500017464F43FF13F719924E4243D913D01335
:10266000081A3760706000F0F3FF8F4A0121908AEA
:10267000C90340180004800D6946088008880321BA
:10268000090208408949FF23002824D0FF38401E52
:1026900030D0FF38401E03D0FF38012838D10CE07D
:1026A000684600880006C00D085E686068460088BD
:1026B000C0B2181A4000085E29E068460088C0B21F
:1026C000181A4000085E6860684600880006C00D61
:1026D000085E40421BE0684600880006C00D085EA8
:1026E0004042686068460088C0B2181A4000085E20
:1026F00040420CE068460088C0B2181A4000085EEC
:1027000040426860684600880006C00D085E286088
:10271000674993684868984201DD401E48609842C6
:1027200001DA0A30486008683268801A614A5368E2
:1027300097699B1043435B13FB1893615769BB4236
:1027400001DC1F4600E0976113699F4200DA936144
:102750001368DB10434318139369C018D061D36822
:10276000984201DC034600E0D3619068834200DABE
:10277000D0615148D26902604B4B104650439B6B6D
:10278000C013181A80114D4B4000185A4C4B484941
:10279000D8605861496876689F69891B5E68B61081
:1027A0004E437613BE199E61864201DD064698614E
:1027B00037461E69B74200DA9E611E68F6104E4326
:1027C00031139E698919D961814200DDD861D969C7
:1027D0009868814201DB084600E0D86136494860CC
:1027E0002E686B6831461D4651434543C913ED13AE
:1027F00053434643491BDA13F013324D12186A60F3
:102800002960314D3148FDF769FC3149C86B496990
:10281000884203DD6A89521C6A8103E06C816A6A1E
:10282000521C6A622B4A6E89536A2B4FB34208D2FC
:102830006C816C622C621E4B5E681B4B9E60052691
:102840003E60D2686B6A9A420DD26C816C622C62D7
:10285000224A1378402633431370214B09221A6011
:10286000204B01221A60884203DD074804740121CD
:1028700081741D480078C00703D16C816C622C62A2
:102880003C6005B0F0BD0000AC100020640F0020DB
:10289000A80E0020580B0020B8090020F3240000E7
:1028A000B0090020C0090020180D0020505300007E
:1028B000C8090020300E0020D8090020504F000029
:1028C000580E0020D009002088090020B40E0020F6
:1028D000A80A00201C0B00207809002050090020C5
:1028E0007C090020740900206E090020F8B58A498F
:1028F0008A4A086810604968894B49004118594361
:102900008913884C516023681A464243D513626884
:102910004B4316464E43F613AE19834D4243D9132B
:10292000D013081A2E60686000F092FE7F4B0121E0
:10293000988AC90340180004800D694608800888F9
:102940000321090208407A49FF22002824D0FF38D9
:10295000401E30D0FF38401E03D0FF38012838D148
:102960000CE0684600880006C00D085E606068469E
:102970000088C0B2101A4000085E29E0684600884E
:10298000C0B2101A4000085E606068460088000609
:10299000C00D085E40421BE0684600880006C00D7E
:1029A000085E4042606068460088C0B2101A40006D
:1029B000085E40420CE068460088C0B2101A400031
:1029C000085E40426060684600880006C00D085EF0
:1029D0002060002257499A600868002801DD401EE7
:1029E0000860002801DA401C08604868002801DD02
:1029F000401E4860002801DA401C48604E4B7D268E
:102A00005868F600B0422DDA1968002901DA491C2D
:102A100002E0002902DD491E196000E01A6000286A
:102A200001DA401C02E0002802DD401E586000E090
:102A30005A6020681D6862685B68014614466943F5
:102A40005C43C913E4136A435843091BD213C013F0
:102A50003A4C121862603A482160FDF73FFB00F0E3
:102A60004BFFF8BD08682A68801A364A566897698D
:102A7000B61046437613BE1996615769BE4201DC13
:102A8000374600E097611669B74200DA966116682A
:102A9000F6104643301396698019D061D668B0426B
:102AA00001DC064600E0D6619068864201DB3046D4
:102AB00000E0D06118601D4A4043926BC013101AA9
:102AC0008011214A4000105A204AD0605061496864
:102AD0006D689669491B5568AD104D436D137519A6
:102AE0009561854201DD054690612E461569AE422D
:102AF00000DA95611568ED104D4329139569491960
:102B0000D161814200DDD061D1699068814201DBF1
:102B100008468BE7D06189E7A80E0020B80900209D
:102B2000F3240000B0090020C0090020180D002087
:102B300050530000C8090020D8090020D009002007
:102B4000B40E0020300E0020504F0000580E002020
:102B5000F0B5A44B85B01868002801DB014600E001
:102B6000414201915968002901DB0A4600E04A42CE
:102B700002929A68002A00DA524203929A4A019C11
:102B8000D36AA34200DAD462136B029CA34200DA38
:102B90001463536B039CA34200DA54634900944BC3
:102BA0004118924A59438913924C5160106023682E
:102BB0001A464243D51362684B4316464E43F613FA
:102BC000AD198D4E4243D913D013081A3560706089
:102BD00000F03EFD894D0121A88AC9034018000478
:102BE000800D69460880088803210902084084494D
:102BF000FF22002824D0FF38401E30D0FF38401E6E
:102C000003D0FF38012838D10CE068460088000660
:102C1000C00D085E606068460088C0B2101A4000AF
:102C2000085E29E068460088C0B2101A4000085EBD
:102C30006060684600880006C00D085E40421BE0E8
:102C4000684600880006C00D085E40426060684625
:102C50000088C0B2101A4000085E40420CE068468E
:102C60000088C0B2101A4000085E404260606846AA
:102C700000880006C00D085E2060624F386800289A
:102C800001DD801E3860002801DA401C3860786859
:102C9000A968884201DD401E7860884201DA401C44
:102CA000786038683168401A57494A688B699210D1
:102CB000424352139A188A614B699A4201DC1346C7
:102CC00000E08B610A69934200DA8A610A68D210D7
:102CD000424310138A698018C861CA68904201DCB7
:102CE000024600E0CA618868824200DAC86146484C
:102CF0004249C2694548474D026010465043896BBE
:102D0000C013081A801142494000085AE8606861FF
:102D100079687368AE69C91A6B689B104B435B1383
:102D2000F318AB61834201DD0346A8611E462B699F
:102D30009E4200DAAB612B68DB104B431913AB6981
:102D4000C918E961814200DDE861E969A86881424A
:102D500001DB084600E0E8612C49486026686368AA
:102D600031461C4651434443C913E413534346437D
:102D7000091BDA13F013284C121862602160274CEB
:102D80002748FDF7ABF91D498869401C8861E66852
:102D90000022244BB0421ED3E068886122481A4CBE
:102DA000C06948672148866E2660C66E6660846F7B
:102DB0002C60C06F686078681D4C85032562A06137
:102DC00088601C481C49C068C8601C480274012106
:102DD0008174062018601A480078C00700D11A6074
:102DE00005B0F0BDA80E0020580B0020B809002047
:102DF000F3240000B0090020C0090020180D0020B5
:102E000050530000C8090020300E0020D8090020CF
:102E1000504F0000580E0020D009002088090020E3
:102E2000B40E002078090020280C0020A80B0020F8
:102E3000800E0020A80A0020A40D0020AC10002065
:102E40006E090020F8B578480025057401268674BF
:102E5000764C2078002813D1002226707302114688
:102E60001046FEF7AFFB03231B02022200210120C4
:102E7000FEF7A8FB7020FDF7B1FE8320FDF7BAFE38
:102E80006B4A552090636C486A49C162C1634163D3
:102E9000016915231B02194301613F2000025061A3
:102EA000956366488169664F396001697960406958
:102EB000B860FEF787FE634A796C6348914203DD90
:102EC00003220273E58016E0604A614B8A189A4239
:102ED00008D8E288521C92B2E280322A0BD9022230
:102EE000027308E05B4A5C4B8A189A4201D8067369
:102EF00000E00573E580BA6C7D23521C1B01BA64A7
:102F00009A427DDBBB64037B544A002B04D0012B27
:102F100076D0022B74D128E07D23F86ADB0098423A
:102F200001DB914278DA4E484E490560CA69426039
:102F30004D48096A8160BD6425707020FDF72AFE46
:102F40003B48552383633C493A4ACA624A63CA6391
:102F50000A691524240222430A618563836345615B
:102F6000856342480421016056E0F96A914253DAD0
:102F70002E4AD580BD64467315703D483D4A0160B8
:102F8000914203DB52428918016003E0002901DA13
:102F900089180160384C786AA168C00300F0E0FD30
:102FA0003649A0654843C013606635480121354A5B
:102FB000C90342600160BB6B1D4C5B1083613248EA
:102FC00042600160F96B49108161254925480D6017
:102FD000C0694860244955278860A7631648154989
:102FE000C1624163C163016915221202114301618B
:102FF000A5637020FDF7CEFDA7636561A56300E0C2
:103000000AE00948057486741648406E4100074876
:10301000C1601648052101601C480078C00701D135
:1030200012480560F8BD0000AC100020880900209F
:1030300040420640800280020042064080800640F6
:10304000240F002030750000640F00208FE8FFFF80
:10305000BF5D00005FF0FFFFCF070000B80B00006E
:10306000C8090020A80B0020180D002078090020B6
:1030700098110020FFFF0000181100206666000074
:10308000300E0020CC0C0000580E00206E090020ED
:1030900030B42F492F4B08681A682F4D801A6A6880
:1030A000AC69921042435213A218AA616C69A24201
:1030B00001DC144600E0AC612A69944200DAAA619E
:1030C0002A68D21042431013AA698018E861EA689E
:1030D000904201DC024600E0EA61A868824201DB1E
:1030E000104600E0E8611D4D1D4A28604043926B88
:1030F000C013101A80111B4A4000105A1A4AD0609F
:10310000506149685B689469C91A53689B104B43C6
:103110005B13E3189361834201DD034690611C4613
:1031200013699C4200DA93611368DB104B43191357
:103130009369C918D161814200DDD061D16990687D
:10314000814201DB084600E0D061686030BC704716
:10315000C8090020C0090020300E0020D809002036
:10316000180D0020504F0000580E0020F8B5634B9A
:1031700055104B431E46DB1376425B1BF613751B43
:10318000044600261046002A00DD0126002B00DD43
:10319000B61C002D00DD361D584A6D42AC46514329
:1031A0005F420546CA136B4245104942C913521B80
:1031B000491B5242494252424942072E19D2350018
:1031C0007D442D796D19AF44140306090C0E1100CE
:1031D0003D4667460FE065461F460CE0154607462C
:1031E00009E01D4607E005460F4604E00D46174678
:1031F00001E000252F464248E919406B81420ADB75
:10320000684300F0ADFC0546C1193D48406B78436A
:1032100000F0A6FC07463B48807800280DD000212E
:1032200038464219072E24D233007B441B79DB1821
:103230009F441F0A0D1014171B000120C003401BE0
:10324000C01B4110C819ECE7A260606004E0626036
:10325000A16008E06260A060E16010E06160A060D1
:1032600005E0A2606160E06009E0A1606060E2608A
:1032700005E0012080036060A0600126E0606761D6
:10328000256126702048214B4678552015250024BD
:103290001F4A20492D02002E986319485668808FD6
:1032A00015D046437600360C861B4E63966846431F
:1032B0007600360C861BCE62D26842435200120C56
:1032C000801AC8630869284308619C63F8BD4643B7
:1032D0007600360C861BCE62966846437600360C26
:1032E000861B4E63D26842435200120C801AC86398
:1032F0000869284308619C63F8BD0000DA6E00008D
:10330000180D0020800900206E0900204042064070
:10331000B40E0020004206400348002141600170C5
:103320008162416370470000741000201F4A2049E9
:10333000906A0860D06A4860536B00208B60C86058
:1033400048618861C8610B6108621A49936B0B6020
:10335000D36B4B60536C8B60126CCA608861C86120
:103360000B614A6108621449144B0A6952001A60E1
:10337000134A8B681360CB6853608B69936049690B
:10338000D1609061D0611361516110620E490D4AA4
:103390000A60FF222D324A600C4A8A60C860486188
:1033A0008861C8610A61086270470000A80B0020AC
:1033B000300E0020580E0020280C0020340A002077
:1033C000800E002010270000FC0E002000C0FFFF30
:1033D000F0B41E4801681E4D69604068A8606E6DBB
:1033E000891BEE6F71438912E962AF6DC01B704398
:1033F000801228632D78062D1BD22E007E4436794C
:10340000B619B7440205080C0F134C42434204E0BE
:103410004C42424208E04B4244420A1809E04B4207
:10342000424205E04A4244420B1802E04A4243420B
:103430000C18084841780848002904D0446003600B
:103440008260F0BC704704604360F9E7808006400A
:10345000780C00206E090020A80E0020F8B5744AF0
:103460007449044610680B685843C313E3615068FD
:1034700009684843C5137049256208686062496855
:10348000A162226850434013181A5143E062481366
:10349000281A2063A069E168C00300F061FB616F36
:1034A000002901DB8E1001E08A105642864200DAC4
:1034B0000646481C03280AD3F00300F051FB5F497D
:1034C0000546884201DD0D4602E0C82D00DAC82518
:1034D000A068012701467143C913FF03C9194003BE
:1034E000009100F03DFB06467803009900F038FBA0
:1034F000216B02460B466B43E06ADB13C31868433B
:10350000C013081A616B7343514349135B13C91805
:103510006163A36B704353435A1340131218A263A1
:103520006368606A58434013081AE063A16A59430C
:103530004913511A424A2164136859435368C91305
:103540005843C013091AE164606DA36D4843C0136A
:10355000C318A365206E834201DDA06503E0656E9C
:10356000AB4200DAA565236D5943A36DC913C91891
:10357000E165814204DC606E814201DBE06D00E0C8
:10358000E065A16FC3035B1A9B125918A167C913A9
:10359000C923594389116167A1684843C013E06793
:1035A0008034216808182749206002D5401820601F
:1035B00004E0884202DD244940182060208803216D
:1035C000C0190004800D09020140204BFF2400298E
:1035D0001AD0FF39491E21D0FF39491E0CD0FF39BE
:1035E000012908D1C0B2211A4900595E400051603A
:1035F000185E40421060F8BDC0B24100595E201A0A
:1036000040005160185EF5E7C0B24100595E201AD3
:10361000494240005160185E4042EBE7C0B2211AB7
:103620004900595E494240005160185EE2E70000DF
:10363000D0090020A80A0020B80900203075000039
:10364000380A0020FFFF00000100FFFF5053000078
:10365000F8B54F490A684F484F4DC079042A17D032
:1036600009684E4F3C46803405292BD03846FFF779
:10367000F5FE2068696F40186861F86FFCF73AFD45
:1036800028676869464900287BDA40186861F8BDF8
:1036900000280CD04348FCF733FD4248C26E816ECF
:1036A00089186961406EFCF725FD2867E9E73E4807
:1036B000FEF790F93C48416D6961406CFCF71AFDDA
:1036C0002867DEE7394EAA69716E491E8A4225D302
:1036D0003248FFF7C3FE706EA969401E814204D1D3
:1036E00021686869FCF712FD03E02068696F4018E3
:1036F00068612F490878401CC0B20870012824D99D
:10370000002008702B49686FC969884201DA401CA3
:103710006867884219DD401E686716E02649497BC4
:10372000002905D01D48FFF799FE206868610CE06C
:10373000002820D01B48FCF7E3FC1A48816EC06EBD
:10374000081868611548FFF789FEF86FFCF7D2FC8E
:1037500028671A49B06E0860F06E48601848B26F6A
:103760000260F26F4260306FC8604861706F8860BD
:10377000086186E705E00C48FEF72CF90A48406D21
:10378000DFE7884283DD0F4940186861F8BD00001B
:103790007809002080090020180D00201811002051
:1037A000FFFF000004100020C0100020A80B002024
:1037B000E4090020280C0020640F0020300E0020B7
:1037C000580E00200100FFFF10B5FEF7D5F800F0FD
:1037D00001F810BDF8B5204C0025E5612562656251
:1037E000A562E56225636563A563E5632564656499
:1037F0001A4FA564386B1A4E80102060786B8010C9
:103800006060B86BA060F96BE160316BE564A16149
:10381000316A2165716AA565E565616541101148E8
:10382000406CC00300F09CF92066404260660E4880
:10383000056045606567A567E567396DB162F86C3D
:10384000F062616120610948816CE166C16CA1662A
:10385000406D2067F8BD000018110020DC0D00202D
:10386000280C0020A80A002098110020180D002024
:103870000448002141608160C160817401210174AC
:1038800041747047AC100020164917480A69C26499
:103890004969032212025143891201650021016125
:1038A0004161016241628160C1608162C162816186
:1038B000C161016681664166C16301640B498A6C1E
:1038C0008265C96C41650A49C165FF21F5314163D3
:1038D000052181630F218164012189034164054928
:1038E000C16670478809002004100020180D0020D0
:1038F000983A00001405000010B4114A5520906356
:1039000011481049C162C1634163016915231B025B
:10391000194301613F2000025061002191630B4B6C
:10392000D9610B480B4AC1631160D869401CD8614A
:10393000094CA468A04201D9D961116010BC70473C
:103940004042064080028002004206408809002072
:10395000A80A0020780900201C0B002070470000F6
:10396000F0B5EFB0FF218D310CA8FCF763FC00250A
:1039700005950B95039504950A9506950795374B84
:10398000099508950095019528460CAC02951A6892
:10399000410062525A680919842672529A6AFF31AC
:1039A00001310A810A2100BF491EFCD1401CC0B26E
:1039B0004228ECD300231946842041430CAD6A5AB7
:1039C000980003AE325009AC2250002206AC2250BF
:1039D0006F463A504D1909AF510003AC695A265849
:1039E000B14200DA21503C58A14200DD395006AC0A
:1039F0002658521C8919D2B22150422AECD303A96D
:103A0000225809585B1C511A3A58DBB2891A8A119C
:103A100069460A50032BCED3009C114A14345465D6
:103A20000198FF231430906502990E4DD165C33380
:103A30000D4A2B606A600B260C4D9C4205DB9442BC
:103A400003DC984201DB904200DD2E60994201DBED
:103A5000914200DD2E606FB0F0BD00008080064016
:103A6000780C0020440900205B0300007C09002042
:103A700030B4D4B201228A40D1B2374A374B354DE7
:103A8000C31882184019072C17D225007D442D79C0
:103A90006D19AF440314253439424D0004788C432A
:103AA0000470107808431070187C88431874107CD8
:103AB0008843107418788843187030BC70470478B5
:103AC0008C430470107808431070187C8843187475
:103AD000107C0843107418788843187030BC704705
:103AE00004788C430470107808431070187C884365
:103AF0001874107C884310741878884326E0027884
:103B00000A43027030BC704704788C43047010780C
:103B100088431070187C884307E004788C43047055
:103B2000107888431070187C0843187430BC7047B4
:103B300004788C430470107808431070187C884314
:103B40001874107C8843107418780843187030BCBF
:103B50007047000060000440200004404000044022
:103B6000034A5060916010680007FCD5D068704728
:103B70008043064010B50648552181633F21090264
:103B8000416100218163FF20F530FDF79DFC10BDF0
:103B900040420640704770477047704770470000CA
:103BA000014901200860704780E200E01849174889
:103BB000486108621748C861C8204862164888648E
:103BC0005020C864154888651548C86515480866BA
:103BD0007120C00008651448486414488863086070
:103BE00088661348134AC06842439212CA627D2213
:103BF000D200424392120A63044A5043801248633F
:103C00000120C00388600C48C86670471027000078
:103C1000A80A0020F0490200A861000081B5DD403B
:103C2000C9BFE0423606FB3B99190000FC3F00008B
:103C3000F80C0020D0FB0100B90E000010B50E4CAE
:103C40000C48E0610D4820620D4860620D48A0629A
:103C50007F20C005E0620C480C49FCF7E5FB2060C2
:103C60000B4860600B4820610B480C49FCF7DCFBFB
:103C7000A06110BD0000C041DC0D00200AD7A33CAC
:103C8000F7CC9237ACC5273895444C2FB0B62B40B3
:103C9000C9BFE04200401C4506819543FBADCE40C4
:103CA00070B5FF2045492430C86145480862454841
:103CB0008862FF204830C86243480863434848632D
:103CC00041488863FF204830C8633E480864404844
:103CD0004864404888640020C86405204865FF2087
:103CE000F53048663C4888663C48C8663C480867EA
:103CF0003C484867400C88673848C8673B483A49A1
:103D000001603B494160490C81603A49C1603A4DCC
:103D1000002145610161FF21243181612A4901624D
:103D200062214162642101630021C1610120334CA1
:103D30000321E0856085A185208631486063314894
:103D4000A06305200002A0878320E0872E489021F1
:103D500041802E4901801E2181800A20E0652C4887
:103D600020662C4820652C482C49FCF79BFB60659D
:103D70002B48FCF77DFCA0651248A064E06429484C
:103D80002949FCF78FFBE5606066FF202430206145
:103D90002648FA22C1685143891261600069FCF724
:103DA000B1FC234901F014F8FCF762FC8011E066D5
:103DB0002148204901602148E06770BDA80B002020
:103DC0008E040000FF3F00006626000001C0FFFFD8
:103DD0009AD9FFFF10270000FF7F00008F0200002C
:103DE00065660000CE8CFFFF98790000280C00204B
:103DF0009B99FFFFCC0C00002B220000180D002027
:103E00006F7D0000ED7A0000580D0020FF0F0000CC
:103E10006F8D8C36BE2800000A6815D0E4B1C8400A
:103E200003D8DC46CCCCCCCC5CCADD40F80C0020FE
:103E30000000A042441F0000980D0020DC05000097
:103E40000F480E4901640F4941640F498164104ACB
:103E50000E490261C1640F49826141610121490338
:103E6000C1610D490162891041620C49C1810C494F
:103E700081620C4981630C49C16370473E070000B1
:103E8000580B0020B90E0000C6710000726D0000D2
:103E9000FFAF000055250000AAAA0000470200005D
:103EA00057440000EE880B4400002F4300B500F09B
:103EB000DFF800BD0548806A002805D110B5044828
:103EC000006FFCF717F910BD704700005009002083
:103ED000180D002070B50D4C0D48666C808C314675
:103EE00041430C48E569006F6843FCF7B3F9E063B0
:103EF00009492064C96848438012A062074C3146D2
:103F0000606A6843FCF7A6F9606470BDA80A0020E7
:103F1000E80A0020180D0020F80C0020240F0020D3
:103F20000B480A4901817D2149014181818109496B
:103F30000161416181614B2202626421C1614622BB
:103F400042620122C262016370470000B80B0000A8
:103F50007410002070170000F0B5394883B00221BA
:103F6000017000244471447084700121C170047197
:103F70008171C17100F0F0F8FFF762FFFFF716FEE4
:103F8000FFF78EFE2F4930484A1041638163016478
:103F90004164C26381642D480A210160C460846069
:103FA0004160FFF74BFEFFF7BBFF00F0CDF929485A
:103FB000274981608900016141614910C1607D210B
:103FC000C900254D4162AC6C2046FCF79BFB234E9B
:103FD0000190716A009100F0FBFE07460021C94381
:103FE000306AFCF79BFB3946FCF792FA1C4E3146CF
:103FF00000F0EEFEFCF73CFB0121C903081A194949
:104000000860019FE96D009800F0E2FE394600F07B
:10401000DFFEAA6D01461046FCF77AFA314600F041
:10402000D7FEFCF725FB104908604B20C0007D211E
:1040300060434901FCF70EF90C49486503B0F0BD37
:1040400080090020CC0C0000280C0020A40D0020CA
:10405000A86100001C0B0020A80A0020DC0D002035
:1040600000FEFF46980900209C090020240F002034
:10407000F0B43749886A0026042808D0886A0528E1
:1040800005D0886A062802D04E70F0BC7047487888
:10409000401CC0B248703228F7D92D4828222D4F35
:1040A00042703A6B3846416B5500FB6AAC464C0097
:1040B000C089634501DCA34205DD834203DD3D8900
:1040C0006D1C3D8100E03E815D00AA4201DCA24200
:1040D00005DD824203DD7C89641C7C8100E07E81F9
:1040E000A94201DC614505DD814203DDBC89641C18
:1040F000BC8100E0BE81834208DA824206DA814256
:1041000004DA13488188491C818001E010488680C8
:10411000FE623E637E633889322809D87889322866
:1041200006D8B889322803D8094880883228ACD903
:10413000074846703E817E81BE81868001460A78AE
:1041400004231A430A700321C1624162F0BC704724
:1041500050090020580B00200F490E48C86710482E
:104160000E4A42600F4A02606F22C260012252036F
:1041700082600D4AC2610D4A026100220A70362136
:1041800041610C480A4901600B494160B1218160DD
:104190007047000018260000780C002055490000E8
:1041A000F80C0020B74500009D6500008E0500005A
:1041B00055050000BC0D002015020000F0B583B0CD
:1041C0000027009700F0E0F854490A684868029018
:1041D0004243D013C860524A0190906A514D524EEA
:1041E000524C062812D09770B7845148A1680160DC
:1041F000E16841600A2028606860022030854D48EF
:10420000FD2201781140017003B0F0BD4A4887706B
:10421000B08C401C80B2B084318D8842F4D3002031
:10422000B0843068A860E968884204DD2B68C9184A
:10423000814206DD07E0884206DA6B68C91A8142CE
:1042400001DBE96000E0E86090783C4F002824D072
:104250003349E868498BFF39F539884202DA304939
:10426000002088703648374AC1682C48006F504398
:10427000FBF7F0FF0090F06F00993238884214DDB0
:104280002749FF22888B9132401C80B2888390425C
:104290000ED900208870888320E07868002827D015
:1042A00001209070A889508306E01D490020888372
:1042B0001B488078002811D0012030850A20286012
:1042C000686001211A4889030160FF21F5314160CE
:1042D0003968029A00F07AF9B06011E00020786045
:1042E0000A20286068601248A1680160E1684160A6
:1042F00002203085E9680E48019A00F067F9B06045
:104300000146F068814200DDB060B16830698142E9
:1043100000DB79E7B06003B0F0BD0000A80A002020
:1043200050090020A40D0020180D0020280C0020AA
:10433000800E00206E09002080090020980D0020CA
:10434000BC0D0020102700000949462008606420A9
:104350004860E120800088600648C860064808611F
:1043600006484861064888610648C86170470000F1
:10437000880A0020E17A0000337300001E05000067
:1043800014AE473D5A64B5BA70B50D4D0B4C686814
:10439000642261685043FBF75DFF06462061286890
:1043A000642221685043FBF755FFE06070430549E4
:1043B000FBF750FF6061E86BE06170BDBC0D002051
:1043C000A80A00201027000070470000074A0121BA
:1043D000D172074955228A604A6852085200024346
:1043E000D0B248600020886070470000000402409E
:1043F00000830640064955228A6010220128486839
:1044000004D0904348600020886070471043F9E76B
:104410000083064010B501210820FCF7BFFF0021F2
:1044200003220846FFF724FB032201210020FFF7A7
:104430001FFB0421002000F01BF80121002000F0E8
:10444000A3F80121002000F05BF80120FFF7BEFF78
:10445000002000F033F80020FFF7CCFF03220221F8
:104460000020FFF705FB002000F070F810BD0000F1
:1044700010B400235524104A00280BD00128D46220
:1044800012D0506AC008C0000843C0B25062D36264
:1044900010BC704794601068C008C0000843C0B2E8
:1044A0001060936010BC7047106AC008C0000843D9
:1044B000C0B21062EBE700000083064010B4002297
:1044C00055230E4900280ED0CB628B6A0124640468
:1044D00023438B6263100128886A0CD018438862DA
:1044E000CA6210BC70478B60486808231843486054
:1044F0008A6010BC70479843F1E7000000830640D3
:1045000030B400235524104A00280CD0EF250901AF
:104510000128D46212D0506A28400143C8B25062C8
:10452000D36230BC704794601068DF24204049019A
:104530000143C8B21060936030BC7047106A2840D5
:104540000143C8B21062EBE70083064010B40023B9
:1045500055220C498024002808D00128CA620CD0BA
:10456000486A20434862CB6210BC70478A60086882
:10457000204308608B6010BC7047086A20430862C3
:10458000F1E700000083064010B4002355240E4AD2
:10459000002809D0D462906A002911D00121084373
:1045A0009062D36210BC704794601020002911689B
:1045B00004D001431160936010BC70478143F9E758
:1045C00040084000ECE700000083064010B4891A60
:1045D00002684A43D3134268002A19D04A43046A46
:1045E00051106118016242699203914203DC026931
:1045F0009203914200DA0262016A89138161C26802
:10460000C9188A4202DD82688A4203DDC26102E083
:104610008169F4E7C161C06910BC704701228A401A
:10462000024940180178114301707047800004402E
:1046300001231A468A40D1B21A46034BDA76034A5E
:10464000801800780840704760080440000004406B
:1046500001228A40014940180274704760000440FA
:10466000F8B5194C194FA168F868814204DD00F0D3
:104670001FFA00202067F8BD38698142FBDC7A69A7
:104680002825914201DC256711E00126814210DADC
:10469000081AFCF737F8F96900F09AFB7F21C90581
:1046A00000F050FBFBF7E4FF2067282803DB2567B9
:1046B00004E0266701E0012800DC2667206F00F097
:1046C000E7F900F0FDF9F8BDA80A0020880A0020EB
:1046D000704700000249012800D00020C8727047CE
:1046E000000402407047704770B50F4801784908D0
:1046F00049000170FCF73CFB0C4C00252089401C54
:1047000080B220810A2806D32581FFF727F900F01F
:10471000DFF900F05DFA6089401C80B26081642896
:1047200000D3658170BD00004C090020440B0020BF
:1047300070B527480169012212041143016125491E
:104740000126087830430870FFF7B0FBFFF7B2FB93
:10475000FFF7C0FBFFF732FD1F484068002400054B
:1047600000280BDA1D4DFD21287808402870032011
:10477000AC61FCF7BDFB28783043287018494888A5
:10478000002801D0401E48808888002801D0401EA3
:1047900088808869002801D0401E8861114800780F
:1047A000C00705D0C869104A401CC861904200D9B2
:1047B000CC610E480068062801D00C6270BD086A02
:1047C0000B4A401C08629042F8D30A6270BD000098
:1047D00000E000E04C090020C0420640400A0020F2
:1047E0001C0B00206E090020A08601007809002023
:1047F000B80B000000B5FCF7DDFD0149086000BD05
:10480000E009002000B513498020487112481A21A0
:1048100001732B2141733C2181734D21C1730F48DA
:1048200000234360FCF7C6FD0D49086000200D49D8
:10483000C04308600C4803600D490C48086048609C
:104840008860C860086148618861C8610949AC2016
:10485000487000BD200402400004024000B0014046
:10486000E009002080E200E000E100E0C0C0C0C03C
:1048700000E400E000100240F8B5314C666A3249AD
:10488000304D08780023400840002246062E19D2F9
:1048900037007F443F79FF19BF4402231538143E87
:1048A0001420FCF711FEFFF75BF8FDF741FBFDF765
:1048B000BFFAFCF731FEFCF721FE3F20FDF74CF874
:1048C00002206062F8BDAB88002BFBD1E36A002BAD
:1048D00002D11278002A01D00870F8BD00F074F9F6
:1048E000F8BD08700A201949A8804868401C486033
:1048F00003D001204860052005E01078BF21084062
:104900001070E36202206062A362F8BD0870AB80A1
:1049100005206062A362F8BD0D4D5522AA630E4AC0
:104920000C4CD462D46354631469152636023443A4
:1049300014613F2212026A61AB630870F8BD000087
:10494000500900201C0B00206E090020440B0020A1
:1049500040420640800280020042064010B5FFF748
:1049600049FF0120FFF7B6FE0A20FCF7ADFD042148
:104970000020FFF753FE042211460020FFF778F8CD
:10498000002203211046FFF773F801214020FCF7B5
:1049900005FD5520FCF786F8FCF778F8FCF7AEF932
:1049A000FCF72EFFFFF736FDFBF70DFFFCF770FA63
:1049B00001211020FCF7DAFC0A2301220321002048
:1049C000FCF7B4FA0020FCF75DFB00210522084645
:1049D000FCF7D2FA00210846FCF70AFB1149032034
:1049E0000873042206210220FFF742F8E7210E484F
:1049F0008900018001210846FCF7C4FCFCF754FD46
:104A0000FCF75AFD0A4809494161002181610521ED
:104A10000161FFF7A1FA8220FCF756FDFCF716FAB8
:104A200010BD000020080440800A0020FFF90000AB
:104A300000E000E00B4A552090630C480A49C1622F
:104A4000C1634163016915231B02194301613F20C2
:104A50000002506100209063054801784908490030
:104A600001707047404206408002800200420640CA
:104A70006E0900207047000001490120486170471D
:104A80000011064070477047704770477047704785
:104A9000FF219131884200DD0846034909694143FD
:104AA0008811024908607047F80C0020180D00209A
:104AB0000248017849084900017070476E090020DA
:104AC0000248012201781143017070476E090020ED
:104AD000F8B53B4C0026A069401CA06114280DD3FA
:104AE000A6612078022108434008668040002070BB
:104AF0000120FCF7ABFA0120FCF7DCFA20788107F3
:104B00001BD504210020FFF793FD00280BD0E0887F
:104B1000401C80B2E080082803D37D20C00066627C
:104B2000A062A680F8BDA088401C80B2A0800828A2
:104B300001D3A6626662E680F8BDC007FCD0A680FD
:104B4000E6800420FCF7C4FA20620520FCF7C0FAD6
:104B500005460420FCF7BCFA281AE0610520FCF7A2
:104B6000B7FA0746606439461648FBF765FB054609
:104B700060637D21206AC90048433946FBF75CFB2E
:104B8000401CA063E16A8D4207D1636ACA1A00D54E
:104B90005A1A062A02DD656200E0E562216B88424E
:104BA00007D1A36ACA1A00D55A1A062A02DDA062E2
:104BB00000E0206366802078400840002070F8BD47
:104BC000400A00208096980010B5FFF749FD10BDFF
:104BD000F8B5214E214C306C2188214D884222DBD2
:104BE00000210846FCF736FBE86B316C88420CD09C
:104BF0001C48E963FBF720FB83B26380580800215F
:104C0000009001220846FCF7E7FA174800684006C2
:104C100002D40020FCF77AFB14480069C00701D1D8
:104C2000FCF748FAF8BD0020E863FCF787FB00209A
:104C3000FCF70CFA0E480068002803D10D480078F4
:104C4000002804D001210846FCF704FBF8BD002130
:104C50000120FCF7FFFAF8BDA80A0020800A002016
:104C6000400A00200087930380420640C04206406D
:104C70007C090020500900200149AC204870704791
:104C80000010024070B51249086B0025ED430D631A
:104C90000120FCF74BFD07260E4C802020600121EF
:104CA000304600F01BF82846032100F017F80A48A8
:104CB00006610120400220600021092000F00EF86A
:104CC0000120FBF7C1FD0120FBF75AFE70BD00007B
:104CD0004042064000E100E000E000E08307FF22E0
:104CE000DB0E9A408907090E9940002808DB8308EB
:104CF00009489B001818036893430B4303607047EF
:104D00000007000F0838830804489B001818C3697F
:104D100093430B43C361704700E400E000ED00E003
:104D2000FFF71CFEFFF7AEFF054CFFF7A5FF20784D
:104D3000C00701D0FFF7D8FCFFF79EFDF5E70000A4
:104D40004C09002070B501250400ED074C4020D42B
:104D5000441A01D2001B0919C60D4B00F2B2FF2AFA
:104D600029D01B0E2CD000020C02D31A2C43DC409D
:104D70002843051910D2280A02D3401C6D0611D011
:104D8000761EF6058019FF2A00DA70BDC00DC00539
:104D900070BD694000F07AF801200543C541521CFE
:104DA000761CE8E764089C40C90161408900E7D1AE
:104DB0000124A043E4E71B0E440200D0034870BD69
:104DC000002AFCD1C00FC00770BD00BF0000C07F2B
:104DD00070B5420064414B005C41120E39D01B0E8D
:104DE00038D0FF2A3CD0FF2B3AD040024902400A7B
:104DF000490A060045184E43000A090AD2184843DA
:104E0000ED017F3A0104731A4019190C4318990FE8
:104E100004D001215B0849075B1A521CD80904D34E
:104E2000401CF50301D19D0607D0FF2A08D2D50505
:104E300006D0E4072043401970BD0125A843F4E7DC
:104E4000002A01DCE00770BD2402FF202043C005DA
:104E500070BD1B0EFF2A03D0FF2B01D0E00770BDF1
:104E6000FF2645003606B54206D84D00B54203D8A8
:104E7000D218FF2A00D0E7E7004870BD0000C07FCD
:104E800070B501250400ED074C4022D4441A02D22B
:104E90006C40001B0919C60D4B00F2B2FF2A4BD023
:104EA0001B0E50D000020C02D31A2C43DC40A84346
:104EB000051B05D5AD0019D36D08761E521E37D0DF
:104EC000F605280A01D2801970BD70416D0603D025
:104ED00070BD6940FFF73CFF9C40090261404900FA
:104EE00001D0401E70BD0124A04370BD6D081DD0CF
:104EF00001202B0C01D12D0410302B0E01D12D02DD
:104F000008302B0F01D12D01001DAB0F01D1AD00D9
:104F1000801CEB0F01D16D00401C6D00361A121A77
:104F2000680AF5054019012A02DB70BD002070BD3A
:104F3000C036300AC00770BD1B0E440201D1FF2BE2
:104F400000D1024870BD002AF0D070BD0000C07FC3
:104F5000A8050008CC09500BA60CDB0DF70E0010BD
:104F6000F810E311C312991365142A15E915A11657
:104F700053170018A8184C19EC19881A211BB61BD6
:104F8000491CD81C651DEF1D771EFC1E7F1F0020CD
:104F90007F20FC207721F1216922DF225423C723BF
:104FA0003924A92418258625F3255E26C82631270D
:104FB000992700286628CB282F299229F429552AD9
:104FC000B52A152B732BD12B2E2C8B2CE62C412D97
:104FD0009B2DF52D4E2EA62EFD2E542FAA2F0030E0
:104FE0005530A930FD305131A431F6314732993274
:104FF000E9323A338933D93327347634C33411351F
:105000005E35AA35F73542368D36D83623376D37BB
:10501000B737003849389238DA3822396939B03927
:10502000F7393E3A843ACA3A0F3B543B993BDE3B50
:10503000223C663CAA3CED3C303D733DB63DF83D1C
:105040003A3E7B3EBD3EFE3E3F3F7F3FC03F00407D
:1050500040408040BF40FE403D417C41BA41F84164
:1050600036427442B142EF422C436943A543E243C6
:105070001E445A449644D2440D4548458345BE4596
:10508000F94533466D46A746E1461B4755478E47CF
:10509000C747004839487148AA48E2481A49524966
:1050A0008A49C249F949304A684A9E4AD54A0C4B56
:1050B000424B794BAF4BE54B1B4C514C864CBC4C97
:1050C000F14C264D5B4D904DC54DF94D2E4E624E27
:1050D000964ECA4EFE4E324F664F994FCD4F0050FE
:1050E000335066509950CC50FE5031516351965117
:1050F000C851FA512C525D528F52C152F252235371
:1051000055538653B753E853185449547A54AA5404
:10511000DA540B553B556B559B55CA55FA552A56D3
:1051200059568956B856E756165745577457A357D8
:10513000D15700582E585D588B58B958E858165911
:10514000435971599F59CD59FA59285A555A825A7B
:10515000B05ADD5A0A5B375B645B905BBD5BEA5B10
:10516000165C435C6F5C9B5CC85CF45C205D4C5DD2
:10517000775DA35DCF5DFB5D265E525E7D5EA85EC2
:10518000D35EFF5E2A5F555F805FAB5FD55F0060D7
:105190002B6055608060AA60D460FF602961536114
:1051A0007D61A761D161FB6125624E627862A16277
:1051B000CB62F4621E63476370639963C263EC63FE
:1051C00014643D6466648F64B864E06409653165A5
:1051D0005A658265AB65D365FB6523664B6673666E
:1051E0009B66C366EB6613673A6762678A67B16757
:1051F000D967006827684F6876689D68C468EB685F
:105200001269396960698769AE69D469FB69226A84
:10521000486A6F6A956ABC6AE26A086B2F6B556BC5
:105220007B6BA16BC76BED6B136C396C5F6C846C23
:10523000AA6CD06CF56C1B6D416D666D8B6DB16D9C
:10524000D66DFB6D216E466E6B6E906EB56EDA6E2E
:10525000FF6E246F496F6D6F926FB76FDB6F0070D9
:10526000257049706E709270B670DB70FF7023719C
:1052700047716B719071B471D871FC711F72437278
:1052800067728B72AF72D272F6721A733D7361736A
:105290008473A873CB73EE731274357458747B7473
:1052A0009E74C274E57408752B754E757075937590
:1052B000B675D975FC751E76417664768676A976C4
:1052C000CB76EE7610773377557777779977BC770B
:1052D000DE7700782278447866788878AA78CC7867
:1052E000EE7810793279537975799779B979DA79D5
:1052F000FC791D7A3F7A607A827AA37AC57AE67A57
:10530000077B297B4A7B6B7B8C7BAD7BCE7BEF7BEA
:10531000117C327C527C737C947CB57CD67CF77C8F
:10532000187D387D597D7A7D9A7DBB7DDB7DFC7D46
:105330001C7E3D7E5D7E7E7E9E7EBE7EDF7EFF7E0F
:105340001F7F3F7F607F807FA07FC07FE07FFF7FE8
:105350000000C90092015B022403ED03B6047F053F
:1053600048061107D907A2086A09330AFB0AC40BC9
:105370008C0C540D1C0EE30EAB0F72103A1101127F
:10538000C8128F1355141C15E215A8166E17331882
:10539000F918BE19821A471B0B1CCF1C931D571EF0
:1053A0001A1FDD1F9F2061212322E522A6236724E7
:1053B0002825E825A82667272628E528A329612A85
:1053C0001F2BDC2B992C552D112ECC2E872F4130E5
:1053D000FB30B5316E322633DF3396344D3504362B
:1053E000BA366F372438D9388C39403AF23AA53B6F
:1053F000563C073DB83D683E173FC53F73402141CD
:10540000CE417A422543D0437A442445CD45754662
:105410001C47C34769480F49B449584AFB4A9D4B4A
:105420003F4CE04C814D204EBF4E5D4FFB4F97509F
:105430003351CE51685202539B533254C954605574
:10544000F5558A561D57B0574258D3586459F359E9
:10545000825A0F5B9C5B285CB35C3E5DC75D4F5E10
:10546000D75E5D5FE35F6860EB606E61F061716203
:10547000F1627063EE636C64E8646365DD655666D3
:10548000CF664667BC673268A66819698B69FD6993
:105490006D6ADC6A4A6BB76B236C8E6CF86C616D5D
:1054A000C96D306E966EFB6E5E6FC16F2270837039
:1054B000E27040719D71F9715472AE7207735E7340
:1054C000B5730A745F74B27404755575A575F37578
:1054D00041768D76D87622776B77B377FA773F78F7
:1054E0008478C77809794A798979C879057A417ABF
:1054F0007C7AB67AEE7A267B5C7B917BC57BF87BE7
:10550000297C597C887CB67CE37C0E7D397D627D6C
:10551000897DB07DD57DFA7D1D7E3E7E5F7E7E7E5F
:105520009C7EB97ED57EEF7E097F217F377F4D7FC0
:10553000617F747F867F977FA67FB47FC17FCD7F99
:10554000D87FE17FE97FF07FF57FF97FFD7FFE7FE8
:105550005100A300F40046019701E9013A028B02D1
:10556000DC022D037E03CF0320047004C104110567
:105570006105B10501065106A006EF063E078D073D
:10558000DC072A087808C60814096109AE09FB0976
:10559000480A940AE00A2C0B770BC20B0D0C570C2F
:1055A000A10CEB0C340D7D0DC60D0F0E560E9E0E8C
:1055B000E50E2C0F730FB90FFF0F44108910CE109A
:1055C000121156119911DC111F126112A312E4126B
:1055D00025136613A613E61325146414A214E0140D
:1055E0001E155B159815D51511164C168816C21682
:1055F000FD1637177017AA17E2171B1853188A18C9
:10560000C118F8182E1964199A19CF19041A381AE2
:105610006C1A9F1AD31A051B381B6A1B9C1BCD1BC7
:10562000FE1B2E1C5E1C8E1CBE1CED1C1B1D4A1D71
:10563000781DA51DD31DFF1D2C1E581E841EB01ED7
:10564000DB1E061F301F5A1F841FAE1FD71F0020EE
:105650008182838485868788898B8C8D8E8F9192B9
:1056600093959697999A9C9D9FA0A2A3A5A7A8AA57
:10567000ACAEB0B2B3B5B7B9BCBEC0C2C5C7C9CC79
:10568000CED1D4D7D9DCDFE2E6E9ECF0F3F7FAFECD
:10569000C056000000000020400900005C0100002E
:1056A0000060000040090020000100005C010000D3
:1056B00000610000400A0020C00E000078010000D8
:1056C000F8B40122081AD203904201DDA44940181F
:1056D0000123DB03A349D84200DA4018002800DA8E
:1056E000401880180004800D69460880088803214E
:1056F000090208409C49FF239C4A002824D0FF3817
:10570000401E30D0FF38401E03D0FF38012838D16A
:105710000CE0684600880006C00D085E50606846D0
:105720000088C0B2181A4000085E29E06846008868
:10573000C0B2181A4000085E506068460088000633
:10574000C00D085E40421BE0684600880006C00DA0
:10575000085E4042506068460088C0B2181A400097
:10576000085E40420CE068460088C0B2181A40004B
:10577000085E40425060684600880006C00D085E22
:1057800010607B4811684468036808465843C51395
:10579000506802466243D213AD18764A95605B4268
:1057A0004343DD130B466343DB13EB18D360724DA9
:1057B0000E462B686C6807465E436743F613FF137B
:1057C000F61916615B4258436143C013C913401870
:1057D0005061906869498861D06869498861106939
:1057E000286050696860F8BC7047F0B465490023D0
:1057F0000C68654F5F4A01B2002C12D093885C00A0
:105800003D5F966A3953751B28185B1C906298B2ED
:105810009080402801D300209080906AF0BC8011D5
:1058200070475C0039535B1C9BB2402BF9D380015D
:10583000906200209080F0E770B483B000214D4C5E
:105840000091019102916078401CC0B260704F4D90
:105850000123AE8DDB034E4AB04239D96170444911
:1058600008684043C41348684043C01320180090A0
:10587000984200DD00930098464980110190400055
:10588000085A0190686E0199401A02905068029C73
:1058900091696043C013081890615169884201DC26
:1058A000014600E091611069814200DA9061106860
:1058B00091698010604340134018D061D1688842DC
:1058C00001DC014600E0D1619068814200DAD061DC
:1058D000908B0321C0180004800D09020140224B67
:1058E000FF242D4A00291AD0FF39491E21D0FF3943
:1058F000491E03D0FF39012924D107E0C0B241007D
:10590000595E201A40005160185E1AE0C0B2211A98
:105910004900595E40005160185E404211E0C0B23B
:105920004100595E201A494240005160185E4042D1
:1059300007E0C0B2211A4900595E49424000516057
:10594000185E1060A86851684143CB130A490B6088
:1059500012685043C013486003B070BC7047000029
:105960000100FFFFFFFF000050530000100A00205D
:10597000D8090020E4090020C8090020300E0020CA
:10598000580E002078090020840F0020180D0020F8
:10599000FC0E0020504F0000200A0020F8B580497E
:1059A0007E4A04460B6810685B10584380132060E1
:1059B0000968526849104A4395137A4965600B6833
:1059C000A3604A68E2602769E16CC01BA769266A88
:1059D000C71B206D891080104E434743F61977137B
:1059E0002762666A71436669AD1BE669AD1B454374
:1059F000481941136162F81A891AA062E16200280D
:105A000001DB024600E04242636DA16D9A4205DA75
:105A100049104843591000F0EDFA04E0002801DD78
:105A2000A16101E04842A061E06A002801DB014673
:105A300000E04142626D914207DAA16D491048438E
:105A4000511000F0D7FAE06104E00028A06D00DCFE
:105A50004042E0612169A069544D421AE06D424321
:105A6000D21353182361E2696169521A4243D01379
:105A700042184D4962610878401CC0B208702D8EF2
:105A8000A84276D3002008700120A56EC003281814
:105A90000004800D694608800E880320000206403D
:105AA000434FFF214348002E25D0FF3E761E31D0C4
:105AB000FF3E761E04D0FF3E012E0ED0016837E077
:105AC0006E4636883606F60DBE5F46606E463688F0
:105AD000F6B2891B4900795E29E06E463688F6B237
